:020000020000FC
:0C0000000C9400010C949C010C94B401C1
:1002000000270FEF0DBF08E00EBF00E007B95298BE
:100210005A9853985B9A0EE00093690003E00DBB77
:100220007894579A569A559A549A239A229A519AA0
:10023000509A259A249A219A209A3C9A3D9A1127FD
:10024000103019F4449A459A02C0449845980E9487
:100250005B01613009F00EC051E08CE0852385B967
:1002600083EF85238BB92D982C9A299828980E9482
:1002700090010EC05F985E9A5D9A5C9A2B9A2A9ABA
:10028000599A58982D9A2C9A299828980E9490014A
:100290004427432F18D02D982C98299A28980E94EB
:1002A00090014427422F0FD02D982C982998289AF6
:1002B0000E949001C5CF212F33272A3018F02A50F1
:1002C0003395FBCF0895403091F0413091F04230AA
:1002D00091F0433091F0443091F0453091F0463048
:1002E00091F0473091F0483091F05BE712C05EE743
:1002F00010C050E30EC05DE60CC059E70AC053E3DE
:1003000008C05BE506C05FE504C050E702C05FE7D8
:1003100000C08CE0852385B983EF85238BB90895D0
:1003200092E0A4E1B8E200000000BA95E1F7AA95D6
:10033000C9F79A95B1F708950F930FB70F9376B158
:100340007F70613011F0170F0BC0171B08F405C048
:10035000103009F005C0662703C01195662700C05C
:100360000F910FBF0F9118950F930FB70F9313367F
:1003700010F013E6F5CF76B17F70613019F01030D0
:100380000CF001C01195171B0AF0662710300CF015
:0E03900002C0119561E00F910FBF0F911895FB
:00000001FF
