:100000000C9434000C943E000C943E000C943E0082
:100010000C943E000C943E000C943E000C943E0068
:100020000C943E000C943E000C943E000C943E0058
:100030000C943E000C943E000C943E000C943E0048
:100040000C943E000C943E000C943E000C943E0038
:100050000C943E000C943E000C943E000C943E0028
:100060000C943E000C943E0011241FBECFEFD8E04C
:10007000DEBFCDBF0E9452000C9463000C940000C0
:10008000FC0190E00CC020813181A9015595479574
:1000900022273078242B352B318320839F5F9617BE
:1000A00090F30895CF93DF9300D0CDB7DEB780E013
:1000B00094E09A8389836AE0CE0101960E94400011
:0A00C00089818BB9FDCFF894FFCFC2
:00000001FF
