:020000020000FC
:0C0000000C9400010C949C010C94B401C1
:1002000000270FEF0DBF08E00EBF00E007B95298BE
:100210005A9853985B9A0EE00093690003E00DBB77
:100220007894579A569A559A549A239A229A519AA0
:10023000509A259A249A219A209A3C9A3D9A1127FD
:10024000103019F4449A459A02C0449845980E9487
:100250005B01613009F00EC05EEF8CE0852385B94B
:1002600083EF85238BB92D9A2C98299A289A0E947E
:1002700090010EC05F9A5E985D985C982B982A98C2
:100280005998589A2D982C98299A289A0E9490014A
:100290004427432F18D02D9A2C9A2998289A0E94E7
:1002A00090014427422F0FD02D9A2C9A299A2898F2
:1002B0000E949001C5CF212F33272A3018F02A50F1
:1002C0003395FBCF0895403091F0413091F04230AA
:1002D00091F0433091F0443091F0453091F0463048
:1002E00091F0473091F0483091F054E812C051E855
:1002F00010C05FEC0EC052E90CC056E80AC05CECBE
:1003000008C054EA06C050EA04C05FE802C050E8E2
:1003100000C08CE0852385B983EF85238BB90895D0
:1003200092E0A4E1B8E200000000BA95E1F7AA95D6
:10033000C9F79A95B1F708950F930FB70F9376B158
:100340007F70613011F0170F0BC0171B08F405C048
:10035000103009F005C0662703C01195662700C05C
:100360000F910FBF0F9118950F930FB70F9313367F
:1003700010F013E6F5CF76B17F70613019F01030D0
:100380000CF001C01195171B0AF0662710300CF015
:0E03900002C0119561E00F910FBF0F911895FB
:00000001FF
