S01A00004144435F50574D5F41546D656761333238702E7372656354
S11300000C9434000C9446000C9446000C94460066
S11300100C9446000C9446000C9446000C94460044
S11300200C9446000C9446000C9446000C94460034
S11300300C9446000C9446000C9448000C94460022
S11300400C9446000C9446000C9446000C94460014
S11300500C9446000C945D000C9446000C944600ED
S11300600C9446000C94460011241FBECFEFD8E038
S1130070DEBFCDBF21E0A0E0B1E001C01D92A230FF
S1130080B207E1F70E94A5000C94DC000C94000078
S11300901F920F920FB60F9211248F93EF93FF9339
S11300A0EAE7F0E0808180648083FF91EF918F9193
S11300B00F900FBE0F901F9018951F920F920FB6BE
S11300C00F9211248F939F938091780090917900DF
S11300D090930101809300019F918F910F900FBE27
S11300E00F901F901895ECE7F0E080E48083808106
S11300F08F7D80838081807F8083EAE7F0E080E8E1
S1130100808380818860808380818B7F80838081ED
S113011083608083089582E084BD95E095BD8093DB
S11301206E0016BC81E687BD089584B1826084B9EF
S113013081E8809380008AE080938100089590E0B4
S11301409093890080938800089587B18E7F87B942
S113015088B18E7F88B984B1816084B90E947300AC
S11301600E948B000E9495007894809100019091E8
S113017001018115924020F085B1816085B903C0E9
S113018085B18E7F85B98091000190910101C3975B
S113019048F080910001909101019695879596957C
S11301A0879501C080E00E949F0083ED90E3019752
S10F01B0F1F700C00000D9CFF894FFCF95
S9030000FC
