S01800004153525F436F64655F435F4D6163726F2E7372656359
S11300000C9434000C943E000C943E000C943E007E
S11300100C943E000C943E000C943E000C943E0064
S11300200C943E000C943E000C943E000C943E0054
S11300300C943E000C943E000C943E000C943E0044
S11300400C943E000C943E000C943E000C943E0034
S11300500C943E000C943E000C943E000C943E0024
S11300600C943E000C943E0011241FBECFEFD8E048
S1130070DEBFCDBF0E945C000C946B000C940000AA
S1130080FC0115C02181922F96952078922B9183A3
S11300902081492F417050E0CA019695982F8827F6
S11300A097958795922F9695892B8083632F3FEFA1
S11300B0360F6111E7CF0895CF93DF9300D0CDB70A
S11300C0DEB780E190E69A83898362E0CE010196EF
S10D00D00E944000FFCFF894FFCF18
S9030000FC
