S01800005265746172646F4156525F436F6465432E7372656335
S11300000C9434000C943E000C943E000C943E007E
S11300100C943E000C943E000C943E000C943E0064
S11300200C943E000C943E000C943E000C943E0054
S11300300C943E000C943E000C943E000C943E0044
S11300400C943E000C943E000C943E000C943E0034
S11300500C943E000C943E000C943E000C943E0024
S11300600C943E000C943E0011241FBECFEFD8E048
S1130070DEBFCDBF0E944F000C9466000C940000BC
S113008082E089B9089580E007C0E3ECF9E0319794
S1130090F1F700C000008F5F8436B8F3089584B18F
S11300A08D7F84B985B18D7F85B98AB182608AB923
S11300B08BB18D7F8BB9199B05C00E9440000E94B3
S11300C04300F9CF8BB18D7F8BB9F5CFF894FFCF77
S9030000FC
